{
  "contractName": "EnlistmentToContract",
  "abi": [
    {
      "constant": true,
      "inputs": [],
      "name": "locked",
      "outputs": [
        {
          "name": "",
          "type": "bool"
        }
      ],
      "payable": false,
      "stateMutability": "view",
      "type": "function"
    },
    {
      "inputs": [
        {
          "name": "landlordEmail",
          "type": "string"
        },
        {
          "name": "streetName",
          "type": "string"
        },
        {
          "name": "floorNr",
          "type": "int256"
        },
        {
          "name": "apartmentNr",
          "type": "int256"
        },
        {
          "name": "houseNr",
          "type": "int256"
        },
        {
          "name": "postalCode",
          "type": "int256"
        }
      ],
      "payable": false,
      "stateMutability": "nonpayable",
      "type": "constructor"
    },
    {
      "constant": true,
      "inputs": [],
      "name": "getOwner",
      "outputs": [
        {
          "name": "",
          "type": "address"
        }
      ],
      "payable": false,
      "stateMutability": "view",
      "type": "function"
    },
    {
      "constant": true,
      "inputs": [],
      "name": "getLandlord",
      "outputs": [
        {
          "name": "",
          "type": "string"
        }
      ],
      "payable": false,
      "stateMutability": "view",
      "type": "function"
    },
    {
      "constant": true,
      "inputs": [],
      "name": "getEnlistment",
      "outputs": [
        {
          "name": "",
          "type": "string"
        },
        {
          "name": "",
          "type": "int256"
        },
        {
          "name": "",
          "type": "int256"
        },
        {
          "name": "",
          "type": "int256"
        },
        {
          "name": "",
          "type": "int256"
        }
      ],
      "payable": false,
      "stateMutability": "view",
      "type": "function"
    },
    {
      "constant": false,
      "inputs": [
        {
          "name": "amount",
          "type": "int256"
        },
        {
          "name": "tenantName",
          "type": "string"
        },
        {
          "name": "tenantEmail",
          "type": "string"
        }
      ],
      "name": "sendOffer",
      "outputs": [],
      "payable": true,
      "stateMutability": "payable",
      "type": "function"
    },
    {
      "constant": false,
      "inputs": [
        {
          "name": "tenantEmail",
          "type": "string"
        }
      ],
      "name": "cancelOffer",
      "outputs": [],
      "payable": true,
      "stateMutability": "payable",
      "type": "function"
    },
    {
      "constant": true,
      "inputs": [
        {
          "name": "tenantEmail",
          "type": "string"
        }
      ],
      "name": "getOffer",
      "outputs": [
        {
          "name": "",
          "type": "bool"
        },
        {
          "name": "",
          "type": "int256"
        },
        {
          "name": "",
          "type": "string"
        },
        {
          "name": "",
          "type": "string"
        },
        {
          "name": "",
          "type": "uint8"
        }
      ],
      "payable": false,
      "stateMutability": "view",
      "type": "function"
    },
    {
      "constant": false,
      "inputs": [
        {
          "name": "result",
          "type": "bool"
        },
        {
          "name": "tenantEmail",
          "type": "string"
        }
      ],
      "name": "reviewOffer",
      "outputs": [],
      "payable": true,
      "stateMutability": "payable",
      "type": "function"
    },
    {
      "constant": false,
      "inputs": [
        {
          "name": "tenantEmail",
          "type": "string"
        },
        {
          "name": "landlordName",
          "type": "string"
        },
        {
          "name": "agreementTenantName",
          "type": "string"
        },
        {
          "name": "agreementTenantEmail",
          "type": "string"
        },
        {
          "name": "leaseStart",
          "type": "uint256"
        },
        {
          "name": "handoverDate",
          "type": "uint256"
        },
        {
          "name": "leasePeriod",
          "type": "uint256"
        },
        {
          "name": "otherTerms",
          "type": "string"
        },
        {
          "name": "hash",
          "type": "string"
        }
      ],
      "name": "submitDraft",
      "outputs": [],
      "payable": true,
      "stateMutability": "payable",
      "type": "function"
    },
    {
      "constant": true,
      "inputs": [
        {
          "name": "tenantEmail",
          "type": "string"
        }
      ],
      "name": "getAgreementParticipants",
      "outputs": [
        {
          "name": "",
          "type": "string"
        },
        {
          "name": "",
          "type": "string"
        },
        {
          "name": "",
          "type": "string"
        }
      ],
      "payable": false,
      "stateMutability": "view",
      "type": "function"
    },
    {
      "constant": true,
      "inputs": [
        {
          "name": "tenantEmail",
          "type": "string"
        }
      ],
      "name": "getAgreementDetails",
      "outputs": [
        {
          "name": "",
          "type": "int256"
        },
        {
          "name": "",
          "type": "uint256"
        },
        {
          "name": "",
          "type": "uint256"
        },
        {
          "name": "",
          "type": "uint256"
        },
        {
          "name": "",
          "type": "string"
        }
      ],
      "payable": false,
      "stateMutability": "view",
      "type": "function"
    },
    {
      "constant": true,
      "inputs": [
        {
          "name": "tenantEmail",
          "type": "string"
        }
      ],
      "name": "getAgreementHashes",
      "outputs": [
        {
          "name": "",
          "type": "string"
        },
        {
          "name": "",
          "type": "string"
        },
        {
          "name": "",
          "type": "string"
        }
      ],
      "payable": false,
      "stateMutability": "view",
      "type": "function"
    },
    {
      "constant": true,
      "inputs": [
        {
          "name": "tenantEmail",
          "type": "string"
        }
      ],
      "name": "getAgreementStatus",
      "outputs": [
        {
          "name": "",
          "type": "uint8"
        }
      ],
      "payable": false,
      "stateMutability": "view",
      "type": "function"
    },
    {
      "constant": false,
      "inputs": [
        {
          "name": "tenantEmail",
          "type": "string"
        },
        {
          "name": "result",
          "type": "bool"
        }
      ],
      "name": "reviewAgreement",
      "outputs": [],
      "payable": true,
      "stateMutability": "payable",
      "type": "function"
    },
    {
      "constant": false,
      "inputs": [
        {
          "name": "tenantEmail",
          "type": "string"
        },
        {
          "name": "landlordSignedHash",
          "type": "string"
        }
      ],
      "name": "landlordSignAgreement",
      "outputs": [],
      "payable": true,
      "stateMutability": "payable",
      "type": "function"
    },
    {
      "constant": false,
      "inputs": [
        {
          "name": "tenantEmail",
          "type": "string"
        },
        {
          "name": "tenantSignedHash",
          "type": "string"
        }
      ],
      "name": "tenantSignAgreement",
      "outputs": [],
      "payable": true,
      "stateMutability": "payable",
      "type": "function"
    },
    {
      "constant": false,
      "inputs": [
        {
          "name": "tenantEmail",
          "type": "string"
        }
      ],
      "name": "cancelAgreement",
      "outputs": [],
      "payable": true,
      "stateMutability": "payable",
      "type": "function"
    },
    {
      "constant": false,
      "inputs": [
        {
          "name": "tenantEmail",
          "type": "string"
        }
      ],
      "name": "receiveFirstMonthRent",
      "outputs": [],
      "payable": true,
      "stateMutability": "payable",
      "type": "function"
    }
  ],
  "bytecode": "0x60806040526000600260006101000a81548160ff0219169083151502179055503480156200002c57600080fd5b5060405162003eae38038062003eae83398101806040528101908080518201929190602001805182019291906020018051906020019092919080519060200190929190805190602001909291908051906020019092919050505060a0604051908101604052808681526020018581526020018481526020018381526020018281525060036000820151816000019080519060200190620000ce9291906200015f565b5060208201518160010155604082015181600201556060820151816003015560808201518160040155905050856001908051906020019062000112929190620001e6565b50336000806101000a81548173ffffffffffffffffffffffffffffffffffffffff021916908373ffffffffffffffffffffffffffffffffffffffff16021790555050505050505062000295565b828054600181600116156101000203166002900490600052602060002090601f016020900481019282601f10620001a257805160ff1916838001178555620001d3565b82800160010185558215620001d3579182015b82811115620001d2578251825591602001919060010190620001b5565b5b509050620001e291906200026d565b5090565b828054600181600116156101000203166002900490600052602060002090601f016020900481019282601f106200022957805160ff19168380011785556200025a565b828001600101855582156200025a579182015b82811115620002595782518255916020019190600101906200023c565b5b5090506200026991906200026d565b5090565b6200029291905b808211156200028e57600081600090555060010162000274565b5090565b90565b613c0980620002a56000396000f3006080604052600436106100fb576000357c0100000000000000000000000000000000000000000000000000000000900463ffffffff168062ff22c61461010057806303746e06146101a2578063222a7af914610244578063265adc331461041c5780632c863d841461051a5780632d63ce27146105c65780632fcc176d1461062257806331ae8ed01461068a5780634d45780e14610736578063673a95ef1461079257806371ca1587146107fa5780637a510116146109b4578063893d20e814610b29578063cf30901214610b80578063d441a15214610baf578063ec2b2a1214610d69578063f278f78414610df4578063f502236d14610e50575b600080fd5b6101a0600480360381019080803590602001908201803590602001908080601f0160208091040260200160405190810160405280939291908181526020018383808284378201915050505050509192919290803590602001908201803590602001908080601f0160208091040260200160405190810160405280939291908181526020018383808284378201915050505050509192919290505050610ee0565b005b610242600480360381019080803590602001908201803590602001908080601f0160208091040260200160405190810160405280939291908181526020018383808284378201915050505050509192919290803590602001908201803590602001908080601f016020809104026020016040519081016040528093929190818152602001838380828437820191505050505050919291929050505061122a565b005b61041a600480360381019080803590602001908201803590602001908080601f0160208091040260200160405190810160405280939291908181526020018383808284378201915050505050509192919290803590602001908201803590602001908080601f0160208091040260200160405190810160405280939291908181526020018383808284378201915050505050509192919290803590602001908201803590602001908080601f0160208091040260200160405190810160405280939291908181526020018383808284378201915050505050509192919290803590602001908201803590602001908080601f0160208091040260200160405190810160405280939291908181526020018383808284378201915050505050509192919290803590602001909291908035906020019092919080359060200190929190803590602001908201803590602001908080601f0160208091040260200160405190810160405280939291908181526020018383808284378201915050505050509192919290803590602001908201803590602001908080601f01602080910402602001604051908101604052809392919081815260200183838082843782019150505050505091929192905050506115ab565b005b34801561042857600080fd5b50610483600480360381019080803590602001908201803590602001908080601f0160208091040260200160405190810160405280939291908181526020018383808284378201915050505050509192919290505050611ba0565b6040518086815260200185815260200184815260200183815260200180602001828103825283818151815260200191508051906020019080838360005b838110156104db5780820151818401526020810190506104c0565b50505050905090810190601f1680156105085780820380516001836020036101000a031916815260200191505b50965050505050505060405180910390f35b6105c460048036038101908080359060200190929190803590602001908201803590602001908080601f0160208091040260200160405190810160405280939291908181526020018383808284378201915050505050509192919290803590602001908201803590602001908080601f0160208091040260200160405190810160405280939291908181526020018383808284378201915050505050509192919290505050611d3a565b005b610620600480360381019080803590602001908201803590602001908080601f01602080910402602001604051908101604052809392919081815260200183838082843782019150505050505091929192905050506120bc565b005b610688600480360381019080803515159060200190929190803590602001908201803590602001908080601f0160208091040260200160405190810160405280939291908181526020018383808284378201915050505050509192919290505050612530565b005b34801561069657600080fd5b5061069f612760565b6040518080602001868152602001858152602001848152602001838152602001828103825287818151815260200191508051906020019080838360005b838110156106f75780820151818401526020810190506106dc565b50505050905090810190601f1680156107245780820380516001836020036101000a031916815260200191505b50965050505050505060405180910390f35b610790600480360381019080803590602001908201803590602001908080601f016020809104026020016040519081016040528093929190818152602001838380828437820191505050505050919291929050505061288c565b005b6107f8600480360381019080803590602001908201803590602001908080601f0160208091040260200160405190810160405280939291908181526020018383808284378201915050505050509192919290803515159060200190929190505050612b52565b005b34801561080657600080fd5b50610861600480360381019080803590602001908201803590602001908080601f0160208091040260200160405190810160405280939291908181526020018383808284378201915050505050509192919290505050612e26565b60405180806020018060200180602001848103845287818151815260200191508051906020019080838360005b838110156108a957808201518184015260208101905061088e565b50505050905090810190601f1680156108d65780820380516001836020036101000a031916815260200191505b50848103835286818151815260200191508051906020019080838360005b8381101561090f5780820151818401526020810190506108f4565b50505050905090810190601f16801561093c5780820380516001836020036101000a031916815260200191505b50848103825285818151815260200191508051906020019080838360005b8381101561097557808201518184015260208101905061095a565b50505050905090810190601f1680156109a25780820380516001836020036101000a031916815260200191505b50965050505050505060405180910390f35b3480156109c057600080fd5b50610a1b600480360381019080803590602001908201803590602001908080601f01602080910402602001604051908101604052809392919081815260200183838082843782019150505050505091929192905050506130e3565b60405180861515151581526020018581526020018060200180602001846003811115610a4357fe5b60ff168152602001838103835286818151815260200191508051906020019080838360005b83811015610a83578082015181840152602081019050610a68565b50505050905090810190601f168015610ab05780820380516001836020036101000a031916815260200191505b50838103825285818151815260200191508051906020019080838360005b83811015610ae9578082015181840152602081019050610ace565b50505050905090810190601f168015610b165780820380516001836020036101000a031916815260200191505b5097505050505050505060405180910390f35b348015610b3557600080fd5b50610b3e613331565b604051808273ffffffffffffffffffffffffffffffffffffffff1673ffffffffffffffffffffffffffffffffffffffff16815260200191505060405180910390f35b348015610b8c57600080fd5b50610b956133b5565b604051808215151515815260200191505060405180910390f35b348015610bbb57600080fd5b50610c16600480360381019080803590602001908201803590602001908080601f01602080910402602001604051908101604052809392919081815260200183838082843782019150505050505091929192905050506133c8565b60405180806020018060200180602001848103845287818151815260200191508051906020019080838360005b83811015610c5e578082015181840152602081019050610c43565b50505050905090810190601f168015610c8b5780820380516001836020036101000a031916815260200191505b50848103835286818151815260200191508051906020019080838360005b83811015610cc4578082015181840152602081019050610ca9565b50505050905090810190601f168015610cf15780820380516001836020036101000a031916815260200191505b50848103825285818151815260200191508051906020019080838360005b83811015610d2a578082015181840152602081019050610d0f565b50505050905090810190601f168015610d575780820380516001836020036101000a031916815260200191505b50965050505050505060405180910390f35b348015610d7557600080fd5b50610dd0600480360381019080803590602001908201803590602001908080601f0160208091040260200160405190810160405280939291908181526020018383808284378201915050505050509192919290505050613685565b60405180826007811115610de057fe5b60ff16815260200191505060405180910390f35b610e4e600480360381019080803590602001908201803590602001908080601f016020809104026020016040519081016040528093929190818152602001838380828437820191505050505050919291929050505061376a565b005b348015610e5c57600080fd5b50610e6561397e565b6040518080602001828103825283818151815260200191508051906020019080838360005b83811015610ea5578082015181840152602081019050610e8a565b50505050905090810190601f168015610ed25780820380516001836020036101000a031916815260200191505b509250505060405180910390f35b6000809054906101000a900473ffffffffffffffffffffffffffffffffffffffff1673ffffffffffffffffffffffffffffffffffffffff163373ffffffffffffffffffffffffffffffffffffffff16141515610f3b57600080fd5b81600115156008826040518082805190602001908083835b602083101515610f785780518252602082019150602081019050602083039250610f53565b6001836020036101000a038019825116818451168082178552505050505050905001915050908152602001604051809103902060000160009054906101000a900460ff161515141515610fca57600080fd5b600383816003811115610fd957fe5b6008826040518082805190602001908083835b6020831015156110115780518252602082019150602081019050602083039250610fec565b6001836020036101000a038019825116818451168082178552505050505050905001915050908152602001604051809103902060040160009054906101000a900460ff16600381111561106057fe5b14151561106c57600080fd5b60058581600781111561107b57fe5b6009826040518082805190602001908083835b6020831015156110b3578051825260208201915060208101905060208303925061108e565b6001836020036101000a0380198251168184511680821785525050505050509050019150509081526020016040518091039020600b0160009054906101000a900460ff16600781111561110257fe5b14151561110e57600080fd5b856009886040518082805190602001908083835b6020831015156111475780518252602082019150602081019050602083039250611122565b6001836020036101000a0380198251168184511680821785525050505050509050019150509081526020016040518091039020600a019080519060200190611190929190613a7b565b5060066009886040518082805190602001908083835b6020831015156111cb57805182526020820191506020810190506020830392506111a6565b6001836020036101000a0380198251168184511680821785525050505050509050019150509081526020016040518091039020600b0160006101000a81548160ff0219169083600781111561121c57fe5b021790555050505050505050565b6000809054906101000a900473ffffffffffffffffffffffffffffffffffffffff1673ffffffffffffffffffffffffffffffffffffffff163373ffffffffffffffffffffffffffffffffffffffff1614151561128557600080fd5b600260009054906101000a900460ff161515156112a157600080fd5b81600115156008826040518082805190602001908083835b6020831015156112de57805182526020820191506020810190506020830392506112b9565b6001836020036101000a038019825116818451168082178552505050505050905001915050908152602001604051809103902060000160009054906101000a900460ff16151514151561133057600080fd5b60038381600381111561133f57fe5b6008826040518082805190602001908083835b6020831015156113775780518252602082019150602081019050602083039250611352565b6001836020036101000a038019825116818451168082178552505050505050905001915050908152602001604051809103902060040160009054906101000a900460ff1660038111156113c657fe5b1415156113d257600080fd5b6003858160078111156113e157fe5b6009826040518082805190602001908083835b60208310151561141957805182526020820191506020810190506020830392506113f4565b6001836020036101000a0380198251168184511680821785525050505050509050019150509081526020016040518091039020600b0160009054906101000a900460ff16600781111561146857fe5b14151561147457600080fd5b856009886040518082805190602001908083835b6020831015156114ad5780518252602082019150602081019050602083039250611488565b6001836020036101000a038019825116818451168082178552505050505050905001915050908152602001604051809103902060090190805190602001906114f6929190613a7b565b5060056009886040518082805190602001908083835b602083101515611531578051825260208201915060208101905060208303925061150c565b6001836020036101000a0380198251168184511680821785525050505050509050019150509081526020016040518091039020600b0160006101000a81548160ff0219169083600781111561158257fe5b02179055506001600260006101000a81548160ff02191690831515021790555050505050505050565b60008060009054906101000a900473ffffffffffffffffffffffffffffffffffffffff1673ffffffffffffffffffffffffffffffffffffffff163373ffffffffffffffffffffffffffffffffffffffff1614151561160857600080fd5b89600115156008826040518082805190602001908083835b6020831015156116455780518252602082019150602081019050602083039250611620565b6001836020036101000a038019825116818451168082178552505050505050905001915050908152602001604051809103902060000160009054906101000a900460ff16151514151561169757600080fd5b60038b8160038111156116a657fe5b6008826040518082805190602001908083835b6020831015156116de57805182526020820191506020810190506020830392506116b9565b6001836020036101000a038019825116818451168082178552505050505050905001915050908152602001604051809103902060040160009054906101000a900460ff16600381111561172d57fe5b14151561173957600080fd5b8c6000600781111561174757fe5b6009826040518082805190602001908083835b60208310151561177f578051825260208201915060208101905060208303925061175a565b6001836020036101000a0380198251168184511680821785525050505050509050019150509081526020016040518091039020600b0160009054906101000a900460ff1660078111156117ce57fe5b148061186b5750600260078111156117e257fe5b6009826040518082805190602001908083835b60208310151561181a57805182526020820191506020810190506020830392506117f5565b6001836020036101000a0380198251168184511680821785525050505050509050019150509081526020016040518091039020600b0160009054906101000a900460ff16600781111561186957fe5b145b8061190757506004600781111561187e57fe5b6009826040518082805190602001908083835b6020831015156118b65780518252602082019150602081019050602083039250611891565b6001836020036101000a0380198251168184511680821785525050505050509050019150509081526020016040518091039020600b0160009054906101000a900460ff16600781111561190557fe5b145b151561191257600080fd5b60088e6040518082805190602001908083835b60208310151561194a5780518252602082019150602081019050602083039250611925565b6001836020036101000a0380198251168184511680821785525050505050509050019150509081526020016040518091039020600101549450610180604051908101604052808e81526020018d81526020018c81526020018681526020018b81526020018a81526020018981526020018881526020018781526020016020604051908101604052806000815250815260200160206040519081016040528060008152508152602001600160078111156119ff57fe5b81525060098f6040518082805190602001908083835b602083101515611a3a5780518252602082019150602081019050602083039250611a15565b6001836020036101000a03801982511681845116808217855250505050505090500191505090815260200160405180910390206000820151816000019080519060200190611a89929190613afb565b506020820151816001019080519060200190611aa6929190613afb565b506040820151816002019080519060200190611ac3929190613afb565b50606082015181600301556080820151816004015560a0820151816005015560c0820151816006015560e0820151816007019080519060200190611b08929190613afb565b50610100820151816008019080519060200190611b26929190613afb565b50610120820151816009019080519060200190611b44929190613afb565b5061014082015181600a019080519060200190611b62929190613afb565b5061016082015181600b0160006101000a81548160ff02191690836007811115611b8857fe5b02179055509050505050505050505050505050505050565b600080600080606060008060009054906101000a900473ffffffffffffffffffffffffffffffffffffffff1673ffffffffffffffffffffffffffffffffffffffff163373ffffffffffffffffffffffffffffffffffffffff16141515611c0557600080fd5b6009876040518082805190602001908083835b602083101515611c3d5780518252602082019150602081019050602083039250611c18565b6001836020036101000a03801982511681845116808217855250505050505090500191505090815260200160405180910390209050806003015481600401548260050154836006015484600701808054600181600116156101000203166002900480601f016020809104026020016040519081016040528092919081815260200182805460018160011615610100020316600290048015611d1f5780601f10611cf457610100808354040283529160200191611d1f565b820191906000526020600020905b815481529060010190602001808311611d0257829003601f168201915b50505050509050955095509550955095505091939590929450565b611d42613b7b565b6000809054906101000a900473ffffffffffffffffffffffffffffffffffffffff1673ffffffffffffffffffffffffffffffffffffffff163373ffffffffffffffffffffffffffffffffffffffff16141515611d9d57600080fd5b81600015156008826040518082805190602001908083835b602083101515611dda5780518252602082019150602081019050602083039250611db5565b6001836020036101000a038019825116818451168082178552505050505050905001915050908152602001604051809103902060000160009054906101000a900460ff1615151480611ebd575060016003811115611e3457fe5b6008826040518082805190602001908083835b602083101515611e6c5780518252602082019150602081019050602083039250611e47565b6001836020036101000a038019825116818451168082178552505050505050905001915050908152602001604051809103902060040160009054906101000a900460ff166003811115611ebb57fe5b145b80611f59575060026003811115611ed057fe5b6008826040518082805190602001908083835b602083101515611f085780518252602082019150602081019050602083039250611ee3565b6001836020036101000a038019825116818451168082178552505050505050905001915050908152602001604051809103902060040160009054906101000a900460ff166003811115611f5757fe5b145b1515611f6457600080fd5b600260009054906101000a900460ff16151515611f8057600080fd5b60a06040519081016040528060011515815260200186815260200185815260200184815260200160006003811115611fb457fe5b8152509150816008846040518082805190602001908083835b602083101515611ff25780518252602082019150602081019050602083039250611fcd565b6001836020036101000a038019825116818451168082178552505050505050905001915050908152602001604051809103902060008201518160000160006101000a81548160ff02191690831515021790555060208201518160010155604082015181600201908051906020019061206b929190613afb565b506060820151816003019080519060200190612088929190613afb565b5060808201518160040160006101000a81548160ff021916908360038111156120ad57fe5b02179055509050505050505050565b6000809054906101000a900473ffffffffffffffffffffffffffffffffffffffff1673ffffffffffffffffffffffffffffffffffffffff163373ffffffffffffffffffffffffffffffffffffffff1614151561211757600080fd5b80600115156008826040518082805190602001908083835b602083101515612154578051825260208201915060208101905060208303925061212f565b6001836020036101000a038019825116818451168082178552505050505050905001915050908152602001604051809103902060000160009054906101000a900460ff1615151415156121a657600080fd5b816000806008836040518082805190602001908083835b6020831015156121e257805182526020820191506020810190506020830392506121bd565b6001836020036101000a038019825116818451168082178552505050505050905001915050908152602001604051809103902060040160009054906101000a900460ff1691506000600381111561223557fe5b82600381111561224157fe5b1480612262575060038081111561225457fe5b82600381111561226057fe5b145b151561226d57600080fd5b6009836040518082805190602001908083835b6020831015156122a55780518252602082019150602081019050602083039250612280565b6001836020036101000a0380198251168184511680821785525050505050509050019150509081526020016040518091039020600b0160009054906101000a900460ff169050600460078111156122f857fe5b81600781111561230457fe5b148061232657506006600781111561231857fe5b81600781111561232457fe5b145b80612346575060078081111561233857fe5b81600781111561234457fe5b145b15151561235257600080fd5b60026008866040518082805190602001908083835b60208310151561238c5780518252602082019150602081019050602083039250612367565b6001836020036101000a038019825116818451168082178552505050505050905001915050908152602001604051809103902060040160006101000a81548160ff021916908360038111156123dd57fe5b0217905550600060078111156123ef57fe5b6009866040518082805190602001908083835b6020831015156124275780518252602082019150602081019050602083039250612402565b6001836020036101000a0380198251168184511680821785525050505050509050019150509081526020016040518091039020600b0160009054906101000a900460ff16600781111561247657fe5b14151561250e5760046009866040518082805190602001908083835b6020831015156124b75780518252602082019150602081019050602083039250612492565b6001836020036101000a0380198251168184511680821785525050505050509050019150509081526020016040518091039020600b0160006101000a81548160ff0219169083600781111561250857fe5b02179055505b6000600260006101000a81548160ff0219169083151502179055505050505050565b6000809054906101000a900473ffffffffffffffffffffffffffffffffffffffff1673ffffffffffffffffffffffffffffffffffffffff163373ffffffffffffffffffffffffffffffffffffffff1614151561258b57600080fd5b80600115156008826040518082805190602001908083835b6020831015156125c857805182526020820191506020810190506020830392506125a3565b6001836020036101000a038019825116818451168082178552505050505050905001915050908152602001604051809103902060000160009054906101000a900460ff16151514151561261a57600080fd5b60008281600381111561262957fe5b6008826040518082805190602001908083835b602083101515612661578051825260208201915060208101905060208303925061263c565b6001836020036101000a038019825116818451168082178552505050505050905001915050908152602001604051809103902060040160009054906101000a900460ff1660038111156126b057fe5b1415156126bc57600080fd5b846126c85760016126cb565b60035b6008856040518082805190602001908083835b60208310151561270357805182526020820191506020810190506020830392506126de565b6001836020036101000a038019825116818451168082178552505050505050905001915050908152602001604051809103902060040160006101000a81548160ff0219169083600381111561275457fe5b02179055505050505050565b60606000806000806000809054906101000a900473ffffffffffffffffffffffffffffffffffffffff1673ffffffffffffffffffffffffffffffffffffffff163373ffffffffffffffffffffffffffffffffffffffff161415156127c357600080fd5b60036000016003600101546003600201546003800154600360040154848054600181600116156101000203166002900480601f0160208091040260200160405190810160405280929190818152602001828054600181600116156101000203166002900480156128745780601f1061284957610100808354040283529160200191612874565b820191906000526020600020905b81548152906001019060200180831161285757829003601f168201915b50505050509450945094509450945094509091929394565b6000809054906101000a900473ffffffffffffffffffffffffffffffffffffffff1673ffffffffffffffffffffffffffffffffffffffff163373ffffffffffffffffffffffffffffffffffffffff161415156128e757600080fd5b80600115156008826040518082805190602001908083835b60208310151561292457805182526020820191506020810190506020830392506128ff565b6001836020036101000a038019825116818451168082178552505050505050905001915050908152602001604051809103902060000160009054906101000a900460ff16151514151561297657600080fd5b60038281600381111561298557fe5b6008826040518082805190602001908083835b6020831015156129bd5780518252602082019150602081019050602083039250612998565b6001836020036101000a038019825116818451168082178552505050505050905001915050908152602001604051809103902060040160009054906101000a900460ff166003811115612a0c57fe5b141515612a1857600080fd5b600684816007811115612a2757fe5b6009826040518082805190602001908083835b602083101515612a5f5780518252602082019150602081019050602083039250612a3a565b6001836020036101000a0380198251168184511680821785525050505050509050019150509081526020016040518091039020600b0160009054906101000a900460ff166007811115612aae57fe5b141515612aba57600080fd5b60076009876040518082805190602001908083835b602083101515612af45780518252602082019150602081019050602083039250612acf565b6001836020036101000a0380198251168184511680821785525050505050509050019150509081526020016040518091039020600b0160006101000a81548160ff02191690836007811115612b4557fe5b0217905550505050505050565b6000809054906101000a900473ffffffffffffffffffffffffffffffffffffffff1673ffffffffffffffffffffffffffffffffffffffff163373ffffffffffffffffffffffffffffffffffffffff16141515612bad57600080fd5b81600115156008826040518082805190602001908083835b602083101515612bea5780518252602082019150602081019050602083039250612bc5565b6001836020036101000a038019825116818451168082178552505050505050905001915050908152602001604051809103902060000160009054906101000a900460ff161515141515612c3c57600080fd5b600383816003811115612c4b57fe5b6008826040518082805190602001908083835b602083101515612c835780518252602082019150602081019050602083039250612c5e565b6001836020036101000a038019825116818451168082178552505050505050905001915050908152602001604051809103902060040160009054906101000a900460ff166003811115612cd257fe5b141515612cde57600080fd5b600185816007811115612ced57fe5b6009826040518082805190602001908083835b602083101515612d255780518252602082019150602081019050602083039250612d00565b6001836020036101000a0380198251168184511680821785525050505050509050019150509081526020016040518091039020600b0160009054906101000a900460ff166007811115612d7457fe5b141515612d8057600080fd5b85612d8c576002612d8f565b60035b6009886040518082805190602001908083835b602083101515612dc75780518252602082019150602081019050602083039250612da2565b6001836020036101000a0380198251168184511680821785525050505050509050019150509081526020016040518091039020600b0160006101000a81548160ff02191690836007811115612e1857fe5b021790555050505050505050565b606080606060008060009054906101000a900473ffffffffffffffffffffffffffffffffffffffff1673ffffffffffffffffffffffffffffffffffffffff163373ffffffffffffffffffffffffffffffffffffffff16141515612e8857600080fd5b6009856040518082805190602001908083835b602083101515612ec05780518252602082019150602081019050602083039250612e9b565b6001836020036101000a03801982511681845116808217855250505050505090500191505090815260200160405180910390209050806000018160010182600201828054600181600116156101000203166002900480601f016020809104026020016040519081016040528092919081815260200182805460018160011615610100020316600290048015612f965780601f10612f6b57610100808354040283529160200191612f96565b820191906000526020600020905b815481529060010190602001808311612f7957829003601f168201915b50505050509250818054600181600116156101000203166002900480601f0160208091040260200160405190810160405280929190818152602001828054600181600116156101000203166002900480156130325780601f1061300757610100808354040283529160200191613032565b820191906000526020600020905b81548152906001019060200180831161301557829003601f168201915b50505050509150808054600181600116156101000203166002900480601f0160208091040260200160405190810160405280929190818152602001828054600181600116156101000203166002900480156130ce5780601f106130a3576101008083540402835291602001916130ce565b820191906000526020600020905b8154815290600101906020018083116130b157829003601f168201915b50505050509050935093509350509193909250565b6000806060806000806000809054906101000a900473ffffffffffffffffffffffffffffffffffffffff1673ffffffffffffffffffffffffffffffffffffffff163373ffffffffffffffffffffffffffffffffffffffff1614151561314757600080fd5b6008876040518082805190602001908083835b60208310151561317f578051825260208201915060208101905060208303925061315a565b6001836020036101000a038019825116818451168082178552505050505050905001915050908152602001604051809103902090508060000160009054906101000a900460ff16816001015482600201836003018460040160009054906101000a900460ff16828054600181600116156101000203166002900480601f01602080910402602001604051908101604052809291908181526020018280546001816001161561010002031660029004801561327a5780601f1061324f5761010080835404028352916020019161327a565b820191906000526020600020905b81548152906001019060200180831161325d57829003601f168201915b50505050509250818054600181600116156101000203166002900480601f0160208091040260200160405190810160405280929190818152602001828054600181600116156101000203166002900480156133165780601f106132eb57610100808354040283529160200191613316565b820191906000526020600020905b8154815290600101906020018083116132f957829003601f168201915b50505050509150955095509550955095505091939590929450565b60008060009054906101000a900473ffffffffffffffffffffffffffffffffffffffff1673ffffffffffffffffffffffffffffffffffffffff163373ffffffffffffffffffffffffffffffffffffffff1614151561338e57600080fd5b6000809054906101000a900473ffffffffffffffffffffffffffffffffffffffff16905090565b600260009054906101000a900460ff1681565b606080606060008060009054906101000a900473ffffffffffffffffffffffffffffffffffffffff1673ffffffffffffffffffffffffffffffffffffffff163373ffffffffffffffffffffffffffffffffffffffff1614151561342a57600080fd5b6009856040518082805190602001908083835b602083101515613462578051825260208201915060208101905060208303925061343d565b6001836020036101000a03801982511681845116808217855250505050505090500191505090815260200160405180910390209050806008018160090182600a01828054600181600116156101000203166002900480601f0160208091040260200160405190810160405280929190818152602001828054600181600116156101000203166002900480156135385780601f1061350d57610100808354040283529160200191613538565b820191906000526020600020905b81548152906001019060200180831161351b57829003601f168201915b50505050509250818054600181600116156101000203166002900480601f0160208091040260200160405190810160405280929190818152602001828054600181600116156101000203166002900480156135d45780601f106135a9576101008083540402835291602001916135d4565b820191906000526020600020905b8154815290600101906020018083116135b757829003601f168201915b50505050509150808054600181600116156101000203166002900480601f0160208091040260200160405190810160405280929190818152602001828054600181600116156101000203166002900480156136705780601f1061364557610100808354040283529160200191613670565b820191906000526020600020905b81548152906001019060200180831161365357829003601f168201915b50505050509050935093509350509193909250565b6000806000809054906101000a900473ffffffffffffffffffffffffffffffffffffffff1673ffffffffffffffffffffffffffffffffffffffff163373ffffffffffffffffffffffffffffffffffffffff161415156136e357600080fd5b6009836040518082805190602001908083835b60208310151561371b57805182526020820191506020810190506020830392506136f6565b6001836020036101000a0380198251168184511680821785525050505050509050019150509081526020016040518091039020905080600b0160009054906101000a900460ff16915050919050565b6000809054906101000a900473ffffffffffffffffffffffffffffffffffffffff1673ffffffffffffffffffffffffffffffffffffffff163373ffffffffffffffffffffffffffffffffffffffff161415156137c557600080fd5b8060006009826040518082805190602001908083835b60208310151561380057805182526020820191506020810190506020830392506137db565b6001836020036101000a0380198251168184511680821785525050505050509050019150509081526020016040518091039020600b0160009054906101000a900460ff1690506004600781111561385357fe5b81600781111561385f57fe5b148061388157506006600781111561387357fe5b81600781111561387f57fe5b145b806138a1575060078081111561389357fe5b81600781111561389f57fe5b145b806138c25750600260078111156138b457fe5b8160078111156138c057fe5b145b1515156138ce57600080fd5b60046009846040518082805190602001908083835b60208310151561390857805182526020820191506020810190506020830392506138e3565b6001836020036101000a0380198251168184511680821785525050505050509050019150509081526020016040518091039020600b0160006101000a81548160ff0219169083600781111561395957fe5b02179055506000600260006101000a81548160ff021916908315150217905550505050565b60606000809054906101000a900473ffffffffffffffffffffffffffffffffffffffff1673ffffffffffffffffffffffffffffffffffffffff163373ffffffffffffffffffffffffffffffffffffffff161415156139db57600080fd5b60018054600181600116156101000203166002900480601f016020809104026020016040519081016040528092919081815260200182805460018160011615610100020316600290048015613a715780601f10613a4657610100808354040283529160200191613a71565b820191906000526020600020905b815481529060010190602001808311613a5457829003601f168201915b5050505050905090565b828054600181600116156101000203166002900490600052602060002090601f016020900481019282601f10613abc57805160ff1916838001178555613aea565b82800160010185558215613aea579182015b82811115613ae9578251825591602001919060010190613ace565b5b509050613af79190613bb8565b5090565b828054600181600116156101000203166002900490600052602060002090601f016020900481019282601f10613b3c57805160ff1916838001178555613b6a565b82800160010185558215613b6a579182015b82811115613b69578251825591602001919060010190613b4e565b5b509050613b779190613bb8565b5090565b60a06040519081016040528060001515815260200160008152602001606081526020016060815260200160006003811115613bb257fe5b81525090565b613bda91905b80821115613bd6576000816000905550600101613bbe565b5090565b905600a165627a7a7230582022ce6787368d8a0bd8f8e2a0241482955d2b969f39109e18296060eb06eb76e60029",
  "source": "pragma solidity ^0.4.18;\r\ncontract EnlistmentToContract {\r\n\r\n    address owner; // A variable to store the address of the contract initalizer\r\n    string landlord; \r\n    bool public locked = false; // boolean variable to define the state of apartment enlistment\r\n    Enlistment enlistment; // An object of the struct Enlistment\r\n    mapping(string => Offer) tenantOfferMap; // Key-Value mapping for both the offer and the aggrements\r\n    mapping(string => AgreementDraft) tenantAgreementMap;\r\n\r\n    function EnlistmentToContract(string landlordEmail, string streetName, int floorNr, int apartmentNr, int houseNr, int postalCode) public\r\n    {\r\n        // The function that creates the Enlistment inside the blockchain\r\n        enlistment = Enlistment(streetName, floorNr, apartmentNr, houseNr, postalCode);\r\n        landlord = landlordEmail;\r\n        owner = msg.sender;\r\n    }\r\n\r\n    function getOwner() view public ownerOnly() returns (address) {\r\n        // get the address of the contract initializer\r\n        return owner;\r\n    }\r\n\r\n    function getLandlord() view public ownerOnly() returns (string) {\r\n        // get the name of the property's landlord\r\n        return landlord;\r\n    }\r\n\r\n    function getEnlistment() view public ownerOnly() returns (string, int, int, int, int) {\r\n        // get the Enlisment Data\r\n        return (enlistment.streetName, enlistment.floorNr, enlistment.apartmentNr, enlistment.houseNr, enlistment.postalCode);\r\n    }\r\n\r\n    enum OfferStatus {\r\n        // Enum is a distinct type that consists of a set of named constants called the enumerator list\r\n        // These are the states of the offer.\r\n        PENDING,\r\n        REJECTED,\r\n        CANCELLED,\r\n        ACCEPTED\r\n    }\r\n\r\n    enum AgreementStatus {\r\n        //the states of the agreements.\r\n        UNINITIALIZED, // internal\r\n        PENDING,\r\n        REJECTED,\r\n        CONFIRMED,\r\n        CANCELLED,\r\n        LANDLORD_SIGNED,\r\n        TENANT_SIGNED,\r\n        COMPLETED\r\n    }\r\n\r\n    struct Enlistment\r\n     // The Struct that contain the attributes of any Enlistment\r\n     {\r\n        string streetName;\r\n        int floorNr;\r\n        int apartmentNr;\r\n        int houseNr;\r\n        int postalCode;\r\n    }\r\n\r\n    struct Offer {\r\n        // The Struct that contains the attributes of any Offer\r\n        bool initialized;\r\n        int amount;\r\n        string tenantName;\r\n        string tenantEmail;\r\n        OfferStatus status;\r\n    }\r\n\r\n    struct AgreementDraft {\r\n        // The Struct that contains the attributes of any Agreement\r\n        string landlordName; // for simplicity, there is only one landlord\r\n        string tenantName; // for simplicity, there is only one tenant and occupants are omitted\r\n        string tenantEmail;\r\n        int amount;\r\n        uint leaseStart;\r\n        uint handoverDate;\r\n        uint leasePeriod;\r\n        string otherTerms;\r\n        string hash;\r\n        string landlordSignedHash;\r\n        string tenantSignedHash;\r\n        AgreementStatus status;\r\n    }\r\n\r\n    modifier noActiveOffer(string tenantEmail) {\r\n        // If the offer of the tenant was either not initialized, Rejected or cancelled. \r\n        require(tenantOfferMap[tenantEmail].initialized == false || tenantOfferMap[tenantEmail].status == OfferStatus.REJECTED || tenantOfferMap[tenantEmail].status == OfferStatus.CANCELLED);\r\n        _;\r\n    }\r\n\r\n    modifier offerExists(string tenantEmail) {\r\n        // Check if and exists with that tenantEmail.\r\n        require(tenantOfferMap[tenantEmail].initialized == true);\r\n        _;\r\n    }\r\n\r\n    modifier offerInStatus(OfferStatus status, string tenantEmail) {\r\n        // Check to see if the offer is in the right state.\r\n        require(tenantOfferMap[tenantEmail].status == status);\r\n        _;\r\n    }\r\n\r\n    modifier offerCancellable(string tenantEmail) {\r\n        // Check to see if the offer can be cancelled and it is not cancelled already nor rejected.\r\n        var offerStatus = tenantOfferMap[tenantEmail].status;\r\n        require(offerStatus == OfferStatus.PENDING || offerStatus == OfferStatus.ACCEPTED);\r\n        var agreementStatus = tenantAgreementMap[tenantEmail].status;\r\n        require(!(agreementStatus == AgreementStatus.CANCELLED || agreementStatus == AgreementStatus.TENANT_SIGNED || agreementStatus == AgreementStatus.COMPLETED));\r\n        _;\r\n    }\r\n\r\n    modifier agreementCanBeSubmitted(string tenantEmail) {\r\n        // Check if the agreement is not yet initialized and can be submitted.\r\n        require(tenantAgreementMap[tenantEmail].status == AgreementStatus.UNINITIALIZED ||\r\n        tenantAgreementMap[tenantEmail].status == AgreementStatus.REJECTED || tenantAgreementMap[tenantEmail].status == AgreementStatus.CANCELLED);\r\n        _;\r\n    }\r\n\r\n    modifier agreementInStatus(AgreementStatus status, string tenantEmail) {\r\n        // Check if the aggrement has the right status\r\n        require(tenantAgreementMap[tenantEmail].status == status);\r\n        _;\r\n    }\r\n\r\n    modifier agreementCancellable(string tenantEmail) {\r\n        // Check to see if the offer can be cancelled and it is not cancelled already nor rejected.\r\n        var agreementStatus = tenantAgreementMap[tenantEmail].status;\r\n        require(!(agreementStatus == AgreementStatus.CANCELLED || agreementStatus == AgreementStatus.TENANT_SIGNED || agreementStatus == AgreementStatus.COMPLETED || agreementStatus == AgreementStatus.REJECTED));\r\n        _;\r\n    }\r\n\r\n    modifier notLocked() {\r\n        // Check to see if the state of the apratment is not Locked.\r\n        require(!locked);\r\n        _;\r\n    }\r\n\r\n    modifier ownerOnly() {\r\n        // That means that when the owner will call the function with this modifier, the function will get executed and otherwise, an exception will be thrown.\r\n        require(msg.sender == owner);\r\n        _;\r\n    }\r\n\r\n    // what if the offer is in status PENDING and the tenant wants to send a new one?\r\n    function sendOffer(int amount, string tenantName, string tenantEmail) payable public\r\n        ownerOnly()\r\n        noActiveOffer(tenantEmail)\r\n        notLocked()\r\n    {\r\n        var offer = Offer({\r\n            initialized: true,\r\n            amount: amount,\r\n            tenantName: tenantName,\r\n            tenantEmail: tenantEmail,\r\n            status: OfferStatus.PENDING\r\n        });\r\n        tenantOfferMap[tenantEmail] = offer;\r\n    }\r\n\r\n    function cancelOffer(string tenantEmail) payable public\r\n        ownerOnly()\r\n        offerExists(tenantEmail)\r\n        offerCancellable(tenantEmail)\r\n    {\r\n        // Cancel Offer\r\n        tenantOfferMap[tenantEmail].status = OfferStatus.CANCELLED;\r\n        if (tenantAgreementMap[tenantEmail].status != AgreementStatus.UNINITIALIZED) {\r\n            tenantAgreementMap[tenantEmail].status = AgreementStatus.CANCELLED;\r\n        }\r\n        locked = false;\r\n    }\r\n\r\n    function getOffer(string tenantEmail) view public ownerOnly() returns (bool, int, string, string, OfferStatus) {\r\n        // Get Offer Details\r\n        var o = tenantOfferMap[tenantEmail];\r\n        return (o.initialized, o.amount, o.tenantName, o.tenantEmail, o.status);\r\n    }\r\n\r\n    function reviewOffer(bool result, string tenantEmail) payable public\r\n        ownerOnly()\r\n        offerExists(tenantEmail)\r\n        offerInStatus(OfferStatus.PENDING, tenantEmail)\r\n    {\r\n        // Review Offer (Approve or Reject)\r\n        tenantOfferMap[tenantEmail].status = result ? OfferStatus.ACCEPTED : OfferStatus.REJECTED;\r\n    }\r\n\r\n    function submitDraft(string tenantEmail, string landlordName, string agreementTenantName, string agreementTenantEmail,\r\n        uint leaseStart, uint handoverDate, uint leasePeriod, string otherTerms, string hash) payable public\r\n        ownerOnly()\r\n        offerExists(tenantEmail)\r\n        offerInStatus(OfferStatus.ACCEPTED, tenantEmail)\r\n        agreementCanBeSubmitted(tenantEmail)\r\n    {  //Submit the agreement with the two sides\r\n        var amount = tenantOfferMap[tenantEmail].amount;\r\n        tenantAgreementMap[tenantEmail] = AgreementDraft(landlordName,\r\n            agreementTenantName, agreementTenantEmail,\r\n            amount, leaseStart,\r\n            handoverDate, leasePeriod,\r\n            otherTerms, hash, \"\", \"\", AgreementStatus.PENDING);\r\n    }\r\n\r\n    // getAgreement functions:\r\n    // can only return tuple of max 7 elements, otherwise throws \"Stack too geep\"\r\n    // solution: splitted into multiple functions\r\n\r\n    function getAgreementParticipants(string tenantEmail) view public ownerOnly() returns (string, string, string) {\r\n        var a = tenantAgreementMap[tenantEmail];\r\n        return (a.landlordName, a.tenantName, a.tenantEmail);\r\n    }\r\n\r\n    function getAgreementDetails(string tenantEmail) view public ownerOnly() returns (int, uint, uint, uint, string) {\r\n        var a = tenantAgreementMap[tenantEmail];\r\n        return (a.amount, a.leaseStart, a.handoverDate, a.leasePeriod, a.otherTerms);\r\n    }\r\n\r\n    function getAgreementHashes(string tenantEmail) view public ownerOnly() returns (string, string, string) {\r\n        var a = tenantAgreementMap[tenantEmail];\r\n        return (a.hash, a.landlordSignedHash, a.tenantSignedHash);\r\n    }\r\n\r\n    function getAgreementStatus(string tenantEmail) view public ownerOnly() returns (AgreementStatus) {\r\n        var a = tenantAgreementMap[tenantEmail];\r\n        return (a.status);\r\n    }\r\n\r\n    function reviewAgreement(string tenantEmail, bool result) payable public\r\n        ownerOnly()\r\n        offerExists(tenantEmail)\r\n        offerInStatus(OfferStatus.ACCEPTED, tenantEmail)\r\n        agreementInStatus(AgreementStatus.PENDING, tenantEmail)\r\n        //Review The Agreement (Approve or Reject)\r\n    {\r\n        tenantAgreementMap[tenantEmail].status = result ? AgreementStatus.CONFIRMED : AgreementStatus.REJECTED;\r\n    }\r\n\r\n    function landlordSignAgreement(string tenantEmail, string landlordSignedHash) payable public\r\n        ownerOnly()\r\n        notLocked()\r\n        offerExists(tenantEmail)\r\n        offerInStatus(OfferStatus.ACCEPTED, tenantEmail)\r\n        agreementInStatus(AgreementStatus.CONFIRMED, tenantEmail)\r\n    {\r\n        // The Landlord signs the Agreement\r\n        tenantAgreementMap[tenantEmail].landlordSignedHash = landlordSignedHash;\r\n        tenantAgreementMap[tenantEmail].status = AgreementStatus.LANDLORD_SIGNED;\r\n        locked = true;\r\n    }\r\n\r\n    function tenantSignAgreement(string tenantEmail, string tenantSignedHash) payable public\r\n        ownerOnly()\r\n        offerExists(tenantEmail)\r\n        offerInStatus(OfferStatus.ACCEPTED, tenantEmail)\r\n        agreementInStatus(AgreementStatus.LANDLORD_SIGNED, tenantEmail)\r\n    {\r\n        // The Tenant signs the Agreement\r\n        tenantAgreementMap[tenantEmail].tenantSignedHash = tenantSignedHash;\r\n        tenantAgreementMap[tenantEmail].status = AgreementStatus.TENANT_SIGNED;\r\n    }\r\n\r\n    function cancelAgreement(string tenantEmail) payable public\r\n        ownerOnly()\r\n        agreementCancellable(tenantEmail)\r\n    {\r\n        // Cancel the agreement\r\n        tenantAgreementMap[tenantEmail].status = AgreementStatus.CANCELLED;\r\n        locked = false;\r\n    }\r\n\r\n    function receiveFirstMonthRent(string tenantEmail) payable public\r\n        ownerOnly()\r\n        offerExists(tenantEmail)\r\n        offerInStatus(OfferStatus.ACCEPTED, tenantEmail)\r\n        agreementInStatus(AgreementStatus.TENANT_SIGNED, tenantEmail)\r\n    {\r\n        // Pay the landlord the first month\r\n        tenantAgreementMap[tenantEmail].status = AgreementStatus.COMPLETED;\r\n    }\r\n}\r\n",
  "sourcePath": "C:\\Users\\Mohamed Khalifa\\Desktop\\final-blk\\blockchain-real-estate-v1\\Ethereum\\contracts\\EnlistmentToContract.sol",
  "compiler": {
    "name": "solc",
    "version": "0.4.24+commit.e67f0147.Emscripten.clang"
  },
  "schemaVersion": "2.0.1",
  "updatedAt": "2018-08-08T08:49:45.075Z"
}